{
  "contractName": "Bank",
  "abi": [
    {
      "anonymous": false,
      "inputs": [
        {
          "indexed": true,
          "internalType": "address",
          "name": "_from",
          "type": "address"
        },
        {
          "indexed": false,
          "internalType": "uint256",
          "name": "_value",
          "type": "uint256"
        }
      ],
      "name": "Deposit",
      "type": "event"
    },
    {
      "anonymous": false,
      "inputs": [
        {
          "indexed": false,
          "internalType": "bytes32",
          "name": "request_id",
          "type": "bytes32"
        }
      ],
      "name": "Request_approved",
      "type": "event"
    },
    {
      "anonymous": false,
      "inputs": [
        {
          "indexed": false,
          "internalType": "uint256",
          "name": "_value1",
          "type": "uint256"
        },
        {
          "indexed": false,
          "internalType": "uint256",
          "name": "_value2",
          "type": "uint256"
        }
      ],
      "name": "data",
      "type": "event"
    },
    {
      "anonymous": false,
      "inputs": [
        {
          "indexed": true,
          "internalType": "address",
          "name": "_from",
          "type": "address"
        },
        {
          "indexed": false,
          "internalType": "uint256",
          "name": "_value",
          "type": "uint256"
        },
        {
          "indexed": false,
          "internalType": "bytes32",
          "name": "request_id",
          "type": "bytes32"
        }
      ],
      "name": "withdraw_event",
      "type": "event"
    },
    {
      "inputs": [
        {
          "internalType": "bytes32",
          "name": "",
          "type": "bytes32"
        }
      ],
      "name": "accounts",
      "outputs": [
        {
          "internalType": "uint256",
          "name": "balance",
          "type": "uint256"
        },
        {
          "internalType": "uint256",
          "name": "number_of_owners",
          "type": "uint256"
        },
        {
          "internalType": "bytes32",
          "name": "account_id",
          "type": "bytes32"
        }
      ],
      "stateMutability": "view",
      "type": "function",
      "constant": true
    },
    {
      "inputs": [
        {
          "internalType": "uint256",
          "name": "",
          "type": "uint256"
        }
      ],
      "name": "owners_list",
      "outputs": [
        {
          "internalType": "bytes32",
          "name": "account_id",
          "type": "bytes32"
        }
      ],
      "stateMutability": "view",
      "type": "function",
      "constant": true
    },
    {
      "inputs": [
        {
          "internalType": "address[]",
          "name": "owners",
          "type": "address[]"
        }
      ],
      "name": "create_Account",
      "outputs": [],
      "stateMutability": "nonpayable",
      "type": "function"
    },
    {
      "inputs": [
        {
          "internalType": "bytes32",
          "name": "id",
          "type": "bytes32"
        }
      ],
      "name": "deposit",
      "outputs": [],
      "stateMutability": "payable",
      "type": "function",
      "payable": true
    },
    {
      "inputs": [
        {
          "internalType": "uint256",
          "name": "amount",
          "type": "uint256"
        }
      ],
      "name": "request_withdraw",
      "outputs": [],
      "stateMutability": "nonpayable",
      "type": "function"
    },
    {
      "inputs": [
        {
          "internalType": "bytes32",
          "name": "request_id",
          "type": "bytes32"
        }
      ],
      "name": "approve_withdraw",
      "outputs": [],
      "stateMutability": "nonpayable",
      "type": "function"
    },
    {
      "inputs": [
        {
          "internalType": "bytes32",
          "name": "account_id",
          "type": "bytes32"
        },
        {
          "internalType": "bytes32",
          "name": "request_id",
          "type": "bytes32"
        }
      ],
      "name": "withdraw",
      "outputs": [],
      "stateMutability": "payable",
      "type": "function",
      "payable": true
    },
    {
      "inputs": [
        {
          "internalType": "bytes32",
          "name": "id",
          "type": "bytes32"
        }
      ],
      "name": "get_balance",
      "outputs": [
        {
          "internalType": "uint256",
          "name": "",
          "type": "uint256"
        }
      ],
      "stateMutability": "view",
      "type": "function",
      "constant": true
    },
    {
      "inputs": [],
      "name": "get_account",
      "outputs": [
        {
          "internalType": "bytes32",
          "name": "",
          "type": "bytes32"
        }
      ],
      "stateMutability": "view",
      "type": "function",
      "constant": true
    }
  ],
  "bytecode": "0x608060405234801561001057600080fd5b506114ae806100206000396000f3fe6080604052600436106100865760003560e01c806365d46c4e1161005957806365d46c4e146101365780638659241614610173578063b214faa51461019c578063bb4c402a146101b8578063bc529c43146101e357610086565b80630ab3ae171461008b578063152383ff146100b45780635a67ac15146100dd578063636151491461011a575b600080fd5b34801561009757600080fd5b506100b260048036038101906100ad9190610d67565b610222565b005b3480156100c057600080fd5b506100db60048036038101906100d69190610dea565b610484565b005b3480156100e957600080fd5b5061010460048036038101906100ff9190610dea565b61062b565b6040516101119190610e30565b60405180910390f35b610134600480360381019061012f9190610e4b565b61066d565b005b34801561014257600080fd5b5061015d60048036038101906101589190610eb7565b61084b565b60405161016a9190610ef3565b60405180910390f35b34801561017f57600080fd5b5061019a60048036038101906101959190610eb7565b610879565b005b6101b660048036038101906101b19190610dea565b610a08565b005b3480156101c457600080fd5b506101cd610a9c565b6040516101da9190610ef3565b60405180910390f35b3480156101ef57600080fd5b5061020a60048036038101906102059190610dea565b610ab0565b60405161021993929190610f0e565b60405180910390f35b6004828290501115610269576040517f08c379a000000000000000000000000000000000000000000000000000000000815260040161026090610fa2565b60405180910390fd5b60005b828290508110156103705760005b8383905081101561035c578082146103495783838281811061029f5761029e610fc2565b5b90506020020160208101906102b4919061104f565b73ffffffffffffffffffffffffffffffffffffffff168484848181106102dd576102dc610fc2565b5b90506020020160208101906102f2919061104f565b73ffffffffffffffffffffffffffffffffffffffff1603610348576040517f08c379a000000000000000000000000000000000000000000000000000000000815260040161033f906110c8565b60405180910390fd5b5b808061035490611117565b91505061027a565b50808061036890611117565b91505061026c565b506000828260405160200161038692919061121c565b60405160208183030381529060405280519060200120905060006040518060400160405280858580806020026020016040519081016040528093929190818152602001838360200280828437600081840152601f19601f820116905080830192505050505050508152602001838152509080600181540180825580915050600190039060005260206000209060020201600090919091909150600082015181600001908051906020019061043b929190610c51565b5060208201518160010155505060006001600083815260200190815260200160002090506000816000018190555083839050816001018190555081816002018190555050505050565b600061048e610ada565b905060006001600083815260200190815260200160002060030160008481526020019081526020016000209050600015158160000160009054906101000a900460ff161515146104dd57600080fd5b600015158160050160003373ffffffffffffffffffffffffffffffffffffffff1673ffffffffffffffffffffffffffffffffffffffff16815260200190815260200160002060009054906101000a900460ff1615151461053c57600080fd5b60018160050160003373ffffffffffffffffffffffffffffffffffffffff1673ffffffffffffffffffffffffffffffffffffffff16815260200190815260200160002060006101000a81548160ff0219169083151502179055508060020160008154809291906105ab90611117565b919050555060016000838152602001908152602001600020600101548160020154036106265760018160000160006101000a81548160ff0219169083151502179055507fc41dca5e781fde63036755defa0190801a4993b53e802760040d993c81fbd8128360405161061d9190610ef3565b60405180910390a15b505050565b60008060016000848152602001908152602001600020600101541161064f57600080fd5b60016000838152602001908152602001600020600001549050919050565b610675610ada565b50600060016000848152602001908152602001600020600301600083815260200190815260200160002090506000816001015490508160000160009054906101000a900460ff166106fb576040517f08c379a00000000000000000000000000000000000000000000000000000000081526004016106f290611281565b60405180910390fd5b8060016000868152602001908152602001600020600001541015610754576040517f08c379a000000000000000000000000000000000000000000000000000000000815260040161074b906112ed565b60405180910390fd5b8060016000868152602001908152602001600020600001600082825461077a919061130d565b92505081905550600160008581526020019081526020016000206003016000848152602001908152602001600020600080820160006101000a81549060ff02191690556001820160009055600282016000905560038201600090556004820160006101000a81549073ffffffffffffffffffffffffffffffffffffffff021916905550503373ffffffffffffffffffffffffffffffffffffffff166108fc829081150290604051600060405180830381858888f19350505050158015610844573d6000803e3d6000fd5b5050505050565b6000818154811061085b57600080fd5b90600052602060002090600202016000915090508060010154905081565b6000610883610ada565b905081600160008381526020019081526020016000206000015410156108de576040517f08c379a00000000000000000000000000000000000000000000000000000000081526004016108d5906112ed565b60405180910390fd5b600082826040516020016108f3929190611383565b6040516020818303038152906040528051906020012090506000600160008481526020019081526020016000206003016000838152602001908152602001600020905060008160000160006101000a81548160ff02191690831515021790555083816001018190555060008160020181905550818160030181905550338160040160006101000a81548173ffffffffffffffffffffffffffffffffffffffff021916908373ffffffffffffffffffffffffffffffffffffffff1602179055503373ffffffffffffffffffffffffffffffffffffffff167fc0fd5daa589cb12f3c28cdad421a66dcf5b1867417d78dabfd254a86a341367c85846040516109fa9291906113af565b60405180910390a250505050565b60003411610a1557600080fd5b610a1d610ada565b5034600160008381526020019081526020016000206000016000828254610a4491906113d8565b925050819055503373ffffffffffffffffffffffffffffffffffffffff167fe1fffcc4923d04b559f4d29a8bfc6cda04eb5b0d3c460751c2402c5c5cc9109c34604051610a919190610e30565b60405180910390a250565b600080610aa7610ada565b90508091505090565b60016020528060005260406000206000915090508060000154908060010154908060020154905083565b60008060005b600080549050811015610c045760005b60008281548110610b0457610b03610fc2565b5b906000526020600020906002020160000180549050811015610bf0573373ffffffffffffffffffffffffffffffffffffffff1660008381548110610b4b57610b4a610fc2565b5b90600052602060002090600202016000018281548110610b6e57610b6d610fc2565b5b9060005260206000200160009054906101000a900473ffffffffffffffffffffffffffffffffffffffff1673ffffffffffffffffffffffffffffffffffffffff1603610bdd5760008281548110610bc857610bc7610fc2565b5b90600052602060002090600202016001015492505b8080610be890611117565b915050610af0565b508080610bfc90611117565b915050610ae0565b506000801b8103610c4a576040517f08c379a0000000000000000000000000000000000000000000000000000000008152600401610c4190611458565b60405180910390fd5b8091505090565b828054828255906000526020600020908101928215610cca579160200282015b82811115610cc95782518260006101000a81548173ffffffffffffffffffffffffffffffffffffffff021916908373ffffffffffffffffffffffffffffffffffffffff16021790555091602001919060010190610c71565b5b509050610cd79190610cdb565b5090565b5b80821115610cf4576000816000905550600101610cdc565b5090565b600080fd5b600080fd5b600080fd5b600080fd5b600080fd5b60008083601f840112610d2757610d26610d02565b5b8235905067ffffffffffffffff811115610d4457610d43610d07565b5b602083019150836020820283011115610d6057610d5f610d0c565b5b9250929050565b60008060208385031215610d7e57610d7d610cf8565b5b600083013567ffffffffffffffff811115610d9c57610d9b610cfd565b5b610da885828601610d11565b92509250509250929050565b6000819050919050565b610dc781610db4565b8114610dd257600080fd5b50565b600081359050610de481610dbe565b92915050565b600060208284031215610e0057610dff610cf8565b5b6000610e0e84828501610dd5565b91505092915050565b6000819050919050565b610e2a81610e17565b82525050565b6000602082019050610e456000830184610e21565b92915050565b60008060408385031215610e6257610e61610cf8565b5b6000610e7085828601610dd5565b9250506020610e8185828601610dd5565b9150509250929050565b610e9481610e17565b8114610e9f57600080fd5b50565b600081359050610eb181610e8b565b92915050565b600060208284031215610ecd57610ecc610cf8565b5b6000610edb84828501610ea2565b91505092915050565b610eed81610db4565b82525050565b6000602082019050610f086000830184610ee4565b92915050565b6000606082019050610f236000830186610e21565b610f306020830185610e21565b610f3d6040830184610ee4565b949350505050565b600082825260208201905092915050565b7f4f6e6c7920666f7572206f776e6572732061726520616c6c6f77656400000000600082015250565b6000610f8c601c83610f45565b9150610f9782610f56565b602082019050919050565b60006020820190508181036000830152610fbb81610f7f565b9050919050565b7f4e487b7100000000000000000000000000000000000000000000000000000000600052603260045260246000fd5b600073ffffffffffffffffffffffffffffffffffffffff82169050919050565b600061101c82610ff1565b9050919050565b61102c81611011565b811461103757600080fd5b50565b60008135905061104981611023565b92915050565b60006020828403121561106557611064610cf8565b5b60006110738482850161103a565b91505092915050565b7f4475706c6963617465206f776e65727320617265206e6f7420616c6c6f776564600082015250565b60006110b2602083610f45565b91506110bd8261107c565b602082019050919050565b600060208201905081810360008301526110e1816110a5565b9050919050565b7f4e487b7100000000000000000000000000000000000000000000000000000000600052601160045260246000fd5b600061112282610e17565b91507fffffffffffffffffffffffffffffffffffffffffffffffffffffffffffffffff8203611154576111536110e8565b5b600182019050919050565b600081905092915050565b6000819050919050565b61117d81611011565b82525050565b600061118f8383611174565b60208301905092915050565b60006111aa602084018461103a565b905092915050565b6000602082019050919050565b60006111cb838561115f565b93506111d68261116a565b8060005b8581101561120f576111ec828461119b565b6111f68882611183565b9750611201836111b2565b9250506001810190506111da565b5085925050509392505050565b60006112298284866111bf565b91508190509392505050565b7f52657175657374206973206e6f7420617070726f766564000000000000000000600082015250565b600061126b601783610f45565b915061127682611235565b602082019050919050565b6000602082019050818103600083015261129a8161125e565b9050919050565b7f496e73756666696369656e742062616c616e6365000000000000000000000000600082015250565b60006112d7601483610f45565b91506112e2826112a1565b602082019050919050565b60006020820190508181036000830152611306816112ca565b9050919050565b600061131882610e17565b915061132383610e17565b925082820390508181111561133b5761133a6110e8565b5b92915050565b6000819050919050565b61135c61135782610e17565b611341565b82525050565b6000819050919050565b61137d61137882610db4565b611362565b82525050565b600061138f828561134b565b60208201915061139f828461136c565b6020820191508190509392505050565b60006040820190506113c46000830185610e21565b6113d16020830184610ee4565b9392505050565b60006113e382610e17565b91506113ee83610e17565b9250828201905080821115611406576114056110e8565b5b92915050565b7f596f7520617265206e6f7420616e206f776e6572000000000000000000000000600082015250565b6000611442601483610f45565b915061144d8261140c565b602082019050919050565b6000602082019050818103600083015261147181611435565b905091905056fea2646970667358221220cb4c177d73984b89566d69bbc6beb970e70464a2e846605c07b95a4b1bd4a1b864736f6c63430008110033",
  "immutableReferences": {},
  "source": "// SPDX-License-Identifier: MIT\n\npragma solidity >=0.4.23 <0.9.0;\n\n\n\ncontract Bank {\n\n  event withdraw_event(address indexed _from, uint _value, bytes32 request_id);\n  event Deposit(address indexed _from, uint _value);\n  event Request_approved(bytes32 request_id);\n  event data(uint _value1, uint _value2);\n\n\n\n  struct Account {\n    uint balance;\n    uint number_of_owners;\n    bytes32 account_id;\n    mapping(bytes32 => Withdraw_request) withdraw_requests;\n  }\n\n  struct Owners {\n    address[] owners;\n    bytes32 account_id;\n  }\n\n  struct Withdraw_request {\n    bool    is_approved;\n    uint    amount;\n    uint    approval_count;\n    bytes32 request_id;\n    address sender;\n    mapping(address => bool) approval;\n  }\n  \n  Owners[] public owners_list;\n  mapping(bytes32 => Account) public accounts;\n\n  modifier has_money(){\n    require(msg.value > 0);\n    _;\n  }\n\n  function is_owner() internal view returns(bytes32){\n    bytes32 id;\n    for(uint i; i < owners_list.length; i++) {\n      for(uint j; j < owners_list[i].owners.length; j++)\n        if(owners_list[i].owners[j] == msg.sender) \n          id = owners_list[i].account_id;\n    }\n    require(id != 0, \"You are not an owner\");\n    return(id);\n  }\n\n\n  function create_Account (address[] calldata owners) public {\n    require(owners.length <= 4, \"Only four owners are allowed\");\n    for(uint i; i < owners.length; i++) {\n      for(uint j; j < owners.length; j++) {\n        if(i != j) {\n          require(owners[i]!= owners[j], \"Duplicate owners are not allowed\");\n        }\n      }\n    }\n    bytes32 id = keccak256(abi.encodePacked(owners));\n    owners_list.push(Owners(owners, id));\n\n    Account storage fill_account;\n    fill_account = accounts[id];\n    fill_account.balance = 0;\n    fill_account.number_of_owners = owners.length;\n    fill_account.account_id = id;\n    \n  }\n\n  function deposit(bytes32 id) payable external  has_money() {\n    is_owner();\n    accounts[id].balance += msg.value;\n    emit Deposit(msg.sender, msg.value);\n  }\n\n  function request_withdraw(uint256 amount) external \n  {\n    bytes32 id = is_owner();\n    \n    require(accounts[id].balance >= amount, \"Insufficient balance\");\n    bytes32 request_id = keccak256(abi.encodePacked(amount, id));\n    Withdraw_request storage request;\n    request = accounts[id].withdraw_requests[request_id];\n    request.is_approved = false;\n    request.amount = amount;\n    request.approval_count = 0;\n    request.request_id = request_id;\n    request.sender = msg.sender;\n    emit withdraw_event(msg.sender, amount, request_id);\n  }\n\n  function approve_withdraw(bytes32 request_id) public {\n    bytes32 id = is_owner();\n    Withdraw_request storage request = accounts[id].withdraw_requests[request_id];\n    require(request.is_approved == false);\n    require(request.approval[msg.sender] == false);\n    request.approval[msg.sender] = true;\n    request.approval_count++;\n    if(request.approval_count == accounts[id].number_of_owners) {\n      request.is_approved = true;\n      emit Request_approved(request_id);\n    }\n  }\n\n  function withdraw(bytes32 account_id, bytes32 request_id) external payable \n  {\n    is_owner();\n    Withdraw_request storage request = accounts[account_id].withdraw_requests[request_id];\n    uint256 amount = request.amount;\n    require(request.is_approved, \"Request is not approved\");\n    require(accounts[account_id].balance >= amount, \"Insufficient balance\");\n    accounts[account_id].balance -= amount;\n    delete accounts[account_id].withdraw_requests[request_id];\n    payable(msg.sender).transfer(amount);\n  }\n\n  function get_balance(bytes32 id) view external returns(uint){\n    \n    require(accounts[id].number_of_owners > 0);\n    return(accounts[id].balance);\n  }\n\n  function get_account() external view returns(bytes32)\n  {\n    bytes32 id = is_owner();\n    return(id);\n  }\n}\n",
  "sourcePath": "/home/raphael/Desktop/code/Solidity-Projects./Joint Account/contracts/bank.sol",
  "compiler": {
    "name": "solc",
    "version": "0.8.17+commit.8df45f5f.Emscripten.clang"
  },
  "schemaVersion": "3.4.11",
  "updatedAt": "2023-04-05T23:35:13.877Z",
  "networkType": "ethereum",
  "devdoc": {
    "kind": "dev",
    "methods": {},
    "version": 1
  },
  "userdoc": {
    "kind": "user",
    "methods": {},
    "version": 1
  }
}