{
  "contractName": "Operation",
  "abi": [
    {
      "constant": true,
      "inputs": [],
      "name": "get_state_variable",
      "outputs": [
        {
          "internalType": "uint256",
          "name": "",
          "type": "uint256"
        }
      ],
      "payable": false,
      "stateMutability": "view",
      "type": "function"
    },
    {
      "constant": false,
      "inputs": [
        {
          "internalType": "uint256",
          "name": "state_modifier",
          "type": "uint256"
        }
      ],
      "name": "state_modify",
      "outputs": [],
      "payable": false,
      "stateMutability": "nonpayable",
      "type": "function"
    },
    {
      "constant": true,
      "inputs": [
        {
          "internalType": "uint256",
          "name": "_useless_number",
          "type": "uint256"
        }
      ],
      "name": "multiply_number",
      "outputs": [
        {
          "internalType": "uint256",
          "name": "",
          "type": "uint256"
        }
      ],
      "payable": false,
      "stateMutability": "pure",
      "type": "function"
    }
  ],
  "bytecode": "0x608060405234801561001057600080fd5b50610128806100206000396000f3fe6080604052348015600f57600080fd5b5060043610603c5760003560e01c80635feebe57146041578063cf871f5c146080578063dbf6ca181460ab575b600080fd5b606a60048036036020811015605557600080fd5b810190808035906020019092919050505060c7565b6040518082815260200191505060405180910390f35b60a960048036036020811015609457600080fd5b810190808035906020019092919050505060d9565b005b60b160ea565b6040518082815260200191505060405180910390f35b60008060028302905080915050919050565b600281026000540160008190555050565b6000805490509056fea265627a7a72315820bb374d6750315847b6225d68bf340acbabefa68bb4f57d31823cbbc736e304c964736f6c63430005100032",
  "source": "// SPDX-License-Identifier: MIT\npragma solidity >=0.4.22 <0.9.0;\n\ncontract Operation {\n\n    uint private state_variable;\n    \n    function get_state_variable() view external returns (uint)\n    {\n        return state_variable;\n    }\n\n    function state_modify(uint state_modifier) external\n    {\n        state_variable = state_variable + state_modifier * 2;\n    }\n\n    function multiply_number(uint _useless_number) pure public returns (uint) {\n        uint new_number;\n        new_number = _useless_number * 2;\n        return(new_number);\n    }\n}\n\ncontract Advanced_operation is Operation {\n    function advanced_multiplication(uint _useless_number) pure external returns (uint) {\n        return(multiply_number(_useless_number) * multiply_number(_useless_number));\n    }\n}",
  "sourcePath": "/home/raphael/Desktop/code/Solidity-Projects./Learning_Solidity_1/contracts/Operation.sol",
  "compiler": {
    "name": "solc",
    "version": "0.5.16+commit.9c3226ce.Emscripten.clang"
  },
  "schemaVersion": "3.4.11",
  "updatedAt": "2023-02-02T03:38:49.191Z",
  "networkType": "ethereum",
  "devdoc": {
    "methods": {}
  },
  "userdoc": {
    "methods": {}
  }
}